S01100004D586B69742D4C32312E737265634A
S1130000E0210020A5040000A1040000A1040000D8
S113001000000000000000000000000000000000DC
S1130020000000000000000000000000A104000027
S11300300000000000000000A1040000A104000072
S1130040A1040000A1040000A1040000A104000018
S1130050A1040000A1040000A1040000A104000008
S1130060A1040000A1040000A1040000A1040000F8
S1130070A1040000A1040000011B0000A104000071
S1130080151B00004D1E0000A1040000A104000087
S1130090A1040000A1040000A1040000A1040000C8
S11300A0A1040000A1040000A1040000A1040000B8
S11300B00000000010B5064C2378002B07D1054B37
S11300C0002B02D0044800E000BF0123237010BDC0
S11300D00801002000000000A0520000084B10B5E9
S11300E0002B03D00749084800E000BF0748036815
S11300F0002B00D110BD064B002BFBD09847F9E72D
S1130100000000000C010020A0520000A0520000DA
S11301100000000010B5024B9847024B984710BDF1
S11301206D0800009D1F000010B5064B9847064C53
S1130130642200212000054B98472000044B984777
S113014010BDC046B1050000BC010020150A000026
S1130150F5090000F8B505000E001700094C01224E
S11301603C212000084B98473B0032002900200026
S1130170064CA047041E01D12000F8BD0448054BDD
S11301809847F9E7BC010020010A0000210A000099
S1130190E84F00000538000010B5002A05D10A0018
S11301A001000020044B984710BD0A0001004020C4
S11301B0014B9847F8E7C0465501000000B583B0ED
S11301C00A006B46D871073301211800014B984788
S11301D003B000BD9901000010B582B001AC5039E4
S11301E02170020910231A4362700E230340012078
S11301F00343A370002203212000024B984702B05E
S113020010BDC0469901000070B5A2B021AB002218
S11302105A7010329A707032002101A8094B984725
S1130220B02421AE084D3470002203213000A847C9
S11302300122802101A8A8470134E4B2B82CF2D1EC
S113024022B070BD013700009901000010B5344B95
S11302509847002860D16420324CA0476420A0470E
S11302600021AE20304CA04700210020A0470021EF
S11302701020A04700214020A04700218120A04752
S11302800021CF20A0470021A120A0470021C820A1
S1130290A0470021A620A0470021A820A0470021B4
S11302A03F20A0470021D320A04700210020A047E1
S11302B00021D520A04700218020A0470021D9207B
S11302C0A0470021F120A0470021DA20A047002107
S11302D01220A0470021DB20A04700214020A04796
S11302E000212020A04700210220A04700218D20CA
S11302F0A04700211420A0470021A420A0470021EA
S1130300A620A047094B984700210020084B984796
S11303100021AF20A04710BD0648074B9847FAE7D5
S11303202901000035090000BD0100000902000098
S1130330D9010000045000001137000070B5A2B0CC
S113034021AB00225A7010329A707032FF2101A83A
S1130350094B9847B02421AE084D34700022032184
S11303603000A8470122802101A8A8470134E4B243
S1130370B82CF2D122B070BD013700009901000001
S1130380F0B5C64600B582B001900E00203AD4B252
S113039043B2002B1ADB310001980F4B9846984763
S11303A024010E4F08373819012208210C4DA847A3
S11303B00136F1B20198C0472000083038180122F4
S11303C00821A84702B004BC9046F0BD0236F6B23C
S11303D000230193DFE7C046D9010000C8470000AD
S11303E099010000F8B5DE4657464E464546E0B54D
S11303F006000D0091460027284B98469B469A46D6
S113040034E04B445B780A2B14D0782E0FD8340098
S1130410202229002000C0470834E4B2782CF7D900
S113042078239B1BF82213400836F618F6B20137DE
S1130430FFB21BE0782E0FD83400202229002000C0
S1130440D0470834E4B2782CF7D978239B1BF822E0
S113045013400836F618F6B20237FFB206E0290058
S11304603000D8470836F6B20137FFB23B004A469F
S1130470D25D002A0BD00D2AC3D00A2AC5D0782E0B
S1130480EDD90235EDB2072D01D80026E7E73CBCD3
S113049090469946A246AB46F8BDC046810300008B
S11304A0FEE7000010B51A4A1A4B9A4211D01A00FE
S11304B0194B9A420DD2194A03339B1A9B080133F4
S11304C09B000022134812498C58845004329A42EB
S11304D0FAD1134A134B9A420AD2D34311495B18F7
S11304E003218B4304339B18002102C29342FCD1A5
S11304F00D4AFF210D4B8B4393600D4A53687F399E
S11305000B4353600B4B98470B4B9847FEE7C04691
S1130510A052000000000020080100200400002078
S113052008010020E001002000ED00E000000000D0
S113053000400041B9360000851E000070B5124B22
S11305404820195C042291431954195C0125A943DC
S113055001242143C9B219541438195C0F26B1433C
S11305600D3E3143195449215E5C96435E545A5CF6
S1130570AA432243D2B25A541A5C3A390A4011317E
S11305800A431A5470BDC04600280040064B40215F
S1130590C82299500331043A9950044AD369423924
S11305A00B43D3617047C04600180040000400406C
S11305B010B5054B98478421C9050448044B984756
S11305C0044B984710BDC0468D050000BC010020B7
S11305D0B50900003D05000030B50E4B5622995C6C
S11305E00125A94301242143C9B299543B20195C34
S11305F0473A91430D3A1143195457215A5CAA437F
S11306002243D2B25A541A5C48390A4011310A437F
S11306101A5430BD00280040064B4021D422995082
S11306200331103A9950044AD3693B390B43D361DF
S11306307047C046001800400004004010B5054B48
S11306409847002204490548054B9847054B9847AD
S113065010BDC04619060000000C004264010020D1
S11306600D0C0000D905000030B50E4BC822995C72
S11306700125A94301242143C9B29954B420195C2A
S1130680B93A91430C3A11431954C9215A5CAA430B
S11306902243D2B25A541A5CBA390A4021310A436D
S11306A01A5430BD00280040064B4021D8229950EE
S11306B00331143A9950044AD36933390B43D36153
S11306C07047C046001800400004004010B5054BB8
S11306D09847002204490548054B9847054B98471D
S11306E010BDC046A9060000001000429001002081
S11306F00D0C00006906000010B50248024B984733
S113070010BDC04610E000E021090000074ACC21DA
S1130710535C01208343034353541639535C0E3016
S113072083430B38034353547047C04600280040AA
S1130730054AD16980235B000B43D3614021EC233C
S1130740024AD1507047C0460004004000180040DF
S113075010B5064B9847064B9847064B984702003E
S113076005490648064B984710BDC04631070000AE
S11307700D070000411E0000002000429C010020E3
S1130780E90A0000074ACA21535C0120834303435A
S113079053541539535C0E3083430A38034353547E
S11307A07047C04600280040044AD36920210B4307
S11307B0D3612031E423024AD15070470004004041
S11307C00018004010B5064B9847064B9847064B57
S11307D09847020005490648064B984710BDC04695
S11307E0A907000085070000F51A00000014004264
S11307F070010020E90A0000074A4C21535C0120E3
S11308008343034353541639535C0E3083430B38EC
S1130810034353547047C04600280040044AD36938
S113082080210B43D3614039E823024AD1507047F9
S1130830000400400018004010B5064B9847064BD2
S11308409847064B9847020005490648064B9847C7
S113085010BDC0461D080000F9070000F51A00008D
S1130860001C004244010020E90A000070B51E4B40
S11308709847C024E405042161601C4B1C4A9A6219
S11308801C4A9A624222985C884398549D5C0120D9
S113089085439D54802252036260174E9E62174A1C
S11308A09A6254229D5C8D439D549D5C85439D5466
S11308B08022920362609E62114A9A6255229C5C75
S11308C08C439C54995C814399540E4B98470E4B2E
S11308D098470E4B98470E4B98470E4B98470E4B34
S11308E098470E4B984770BDD10C0000002800407B
S11308F004000240000002C000000240100002C0D8
S1130900200002C0B10500003D060000CD06000035
S1130910F906000051070000C5070000390800006F
S113092010B5024B1860024B984710BD24010020FB
S11309301917000010B5044B1C68044B98470100BC
S11309402000034B984710BD24010020C90C00006F
S11309502D17000010B584B0140001AB1438828B3D
S11309601A800294054A5A8003911900044B98474F
S1130970002800D1200004B010BDC0460080FFFF55
S11309801912000010B584B0140001AB1438828B26
S11309901A800294054A5A8003911900044B98471F
S11309A0002800D1200004B010BDC0460180FFFF24
S11309B01912000070B504000D00431E9841C0B226
S11309C068220749074B984729002000064B98479F
S11309D0002803D1054BA361054B636170BDC0467C
S11309E024500000850C0000F10F00008509000070
S11309F05509000010B5014B984710BD21100000A7
S1130A008905890D8023DB001A400A438283100084
S1130A107047000010B5014B984710BD95100000B9
S1130A2070B586B0040016001D006B46D9710733FB
S1130A3003A9828B0A8001224A6000224A808B60CB
S1130A40074B9847002801D006B070BD03A9054B99
S1130A504B808E604D602000014B9847F4E7C04600
S1130A601912000000A0FFFF70B506000C0015006D
S1130A7000280DD00800431E9841C0B23E2205490B
S1130A80054B984733682A0021003000984770BD11
S1130A900020F3E740500000850C000070B506000C
S1130AA00C00150000280DD00800431E9841C0B268
S1130AB047220549054B984773682A0021003000F6
S1130AC0984770BD0020F3E740500000850C0000FB
S1130AD010B54369002B00D0984710BD10B5836949
S1130AE0002B00D0984710BD70B504000D0016000F
S1130AF0002813D0002913D01000431E98413D2232
S1130B000849094B9847E661336829002000984753
S1130B10064B2360064B6360002070BD0020EEE7A7
S1130B200020ECE754500000850C0000D10A0000BE
S1130B30DD0A0000F8B5CE46474680B504000F0034
S1130B409046002821D0002921D01000431E98414E
S1130B50FB221049104B98470834104D2000A84739
S1130B600028FBD000260E4B99460C4DB95D2000A1
S1130B70C8472000A8470028FBD001364645F5D3D6
S1130B8030000CBC90469946F8BD0020E0E70020F8
S1130B90DEE7C0466C500000850C0000DD0F00004D
S1130BA0CD0F0000F8B5CE46474680B504000F00CF
S1130BB0904600281DD000291DD01000431E9841E6
S1130BC01622FF320D490E4B9847002608340D4D6E
S1130BD00D4B99462000A8470028FBD02000C847A9
S1130BE0B85501364645F5D330000CBC90469946BD
S1130BF0F8BD0020E4E70020E2E7C0466C500000A6
S1130C00850C0000E70F0000D50F000070B505004B
S1130C100C00002813D00800431E9841C0B23E22A5
S1130C200849094B9847280008302100074B98478A
S1130C30002803D1064B6B60064B2B6070BD00206F
S1130C40EDE7C0466C500000850C00008D0F0000DD
S1130C50A50B0000350B000010B50400431E98419D
S1130C60C0B25D220449054B984720000830044B6C
S1130C709847002010BDC0466C500000850C000051
S1130C80B90F0000002800D100BE70470300064AD7
S1130C901268002A04D0044A1068C318136070470D
S1130CA00249014A1160F6E728010020E0210020F2
S1130CB001204042704780239B014B600020704715
S1130CC00120704700207047FA239B015843704766
S1130CD010B50A4B5A685A600220094B9847094BD1
S1130CE09847094B9847094B98470820084CA04758
S1130CF0084B9847F720A04710BDC046004000416C
S1130D007B0D0000410D0000590D00002D0D000069
S1130D10190D0000790D0000C30702D5014A024BEA
S1130D201A6270470601010000180040034B0822B4
S1130D309A71043A5A71033A1A71704700040040D8
S1130D40044BDA69F82149010A40DA6101221A6187
S1130D507047C046001000408E22064B1A751900D9
S1130D607E3ACB681A42FCD0024A137D80210B43A1
S1130D7013757047000C004070478023DB059B7897
S1130D800322134098420CD08022D205FF23937192
S1130D90937803218B430840184390709379002B78
S1130DA0FCD0704710B5074B984202D08003000E68
S1130DB007D0E822920004490020044B9847012000
S1130DC0404210BD00040043DC500000850C0000CC
S1130DD070B505000C000800294B9847C0B20122E9
S1130DE0E3691A42FCD10322E3691A42FCD1236865
S1130DF09B0741D40122E3691A42FCD123680122F2
S1130E0013432360E3691A42FCD143001B18DB003F
S1130E101C4AD31859680322E3691A42FCD12160A1
S1130E2043001B18DB00174AD3189E680422E369A9
S1130E301A42FCD1666043001B18DB00114AD31828
S1130E40DB68E3608901890FA98101238B42894111
S1130E5049420422E3691A42FCD1636A0A4A1A40ED
S1130E608B031343636243001818C000054B181822
S1130E70438AEB81002070BD11204042FBE7C0464D
S1130E80A50D000088500000FFBFFFFF10B504004F
S1130E90394B984205D083031B0E032B5CD0042BE3
S1130EA05CD0364A36490020364B98470020012250
S1130EB0E3691A42FCD10322E3691A42FCD1236894
S1130EC09B0755D40122E3691A42FCD1236801220D
S1130ED013432360E3691A42FCD1010083001B1809
S1130EE09B00294AD318D8690322E3691A42FCD12A
S1130EF020608B005B189B00234AD3181B6A636035
S1130F00C023DB0118422BD08A00521893001E4ADA
S1130F10D218908CA389C004C00C5B0B5B03034301
S1130F20A3812632137807221A40A3895203DB04D3
S1130F30DB0C1343A381144A880043189B00D31885
S1130F4027331B78A373411889005218283212786A
S1130F503023E254002010BD0020A8E70120A6E7BA
S1130F608B005B189B00084AD3189B8CA381E2E793
S1130F7011204042EFE7C046000400434302000052
S1130F80DC500000850C00008850000070B505009E
S1130F900C00431E9841C0B2BE220449044B98473A
S1130FA02C602000034B984770BDC046DC50000005
S1130FB0850C00008D0E000002680321D3691942DC
S1130FC0FCD1136802210B4313607047036889B294
S1130FD0198570470368188DC0B270470368187E7E
S1130FE00123184070470368187E4007C00F7047FC
S1130FF070B504000D00431E9841C0B2044A05496F
S1131000054B9847256129002000044B984770BD83
S11310100F050000DC500000850C0000D10D00001D
S113102070B50400164D431E9841C0B2154A2900FC
S1131030154EB04724692000431E9841C0B2134A9C
S11310402900B0470322E3691A42FCD12368022233
S1131050134323600E49023203201025E3691A4228
S1131060FCD1638B1B090340012B07D001390029F4
S1131070F4DCE3691A42FCD16583EFE7002070BD1C
S1131080DC5000002C050000850C0000FE0500006B
S1131090FFFF0000F0B5D6464F464646C0B584B0C3
S11310A00600150004690322E3691A42FCD123688F
S11310B09B0700D594E020004C4B9847B389002B44
S11310C01AD0012B52D0022B00D08CE06900E068CA
S11310D0474D0540FA208001401A464B98470004CA
S11310E0FF231B0418402843E060002004B01CBC0C
S11310F090469946A246F0BDE768FF3398469F4361
S1131100A80040194000FA239B019A46181A3A4B4A
S11311109946984700900191F089384B9847384E8A
S1131120384A394BB0470290039153466B43180039
S1131130C84702000B0002980399B04702000B0055
S113114000980199314EB047009001916800C8475A
S113115002000B00009801992D4DA8472D4B98478C
S1131160434618403843E0600020BFE7E768FE3399
S113117098469F43A80040194000FA239B019A46D1
S1131180181A1D4B9946984700900191F0891B4B02
S113119098471B4E1B4A1C4BB04702900391534681
S11311A06B431800C84702000B0002980399B0472C
S11311B002000B0000980199144EB0470090019171
S11311C06800C84702000B0000980199104DA84719
S11311D0104B9847434618403843E060002085E7A9
S11311E01120404282E70D2040427FE7A50D000018
S11311F0FFFF00FFBD1F0000913300000D3300000E
S11312007927000095D626E80B2E113E792C000094
S113121011210000D5200000F0B5DE4657464E46A9
S11312204546E0B583B005008946046903005A1EAB
S11312309341DBB29846C04EC04A31001800C04FFB
S1131240B8472869431E9841C0B2BE4A3100B84726
S11312504846431E9841C0B2BB4A3100B8476B8828
S1131260DB0500D50BE24B465B888022520013431A
S11312704A4653802B0043CA43C36B889B040AD558
S1131280002080235B009B46032104220127FE3BB0
S11312909A460190C0E12E693768AC4AA649404697
S11312A0A74B98476B68012B54D00422F3691A4268
S11312B0FCD17368A64A134073602B885A0555D530
S11312C06A88D20704D56A888021C9000A436A80E3
S11312D05B00A04A1A400421F3691942FCD1716AE7
S11312E08023DB010B4080210902194311430422AE
S11312F0F3691A42FCD171622869037EDBB2964A13
S11313000321194204D1037EDBB2013A002AF8D149
S113131030680421F2691142FCD1718B89B2DA0779
S113132000D498E08B0737D5012333766B8880226D
S1131330520113436B806B88884A13406B800120F1
S113134003000B405842584105386B88834A1340C8
S11313506B808DE13B01A8D50422F3691A42FCD1CC
S113136072688023DB0213437360A6E769885B001D
S1131370FF200340FE38084018430422F3691A4250
S1131380FCD1716A8023DB01194001430422F36913
S11313901A42FCD17162AFE74B071BD46B885B0523
S11313A034D52B88DB0906221A400421F36919423B
S11313B0FCD1736A8021C9010B40F1210B43134313
S11313C0ED39F2691142FCD173626B88644A1340AF
S11313D06B8055E76B68002B04DD6B88802252011B
S11313E013436B806B881BB2002B08DA0423F26969
S11313F01342FCD17268C0239B02134373606B8851
S1131400564A13406B80022040429EE76B68002BD3
S113141012D16B881BB2002B04DB6B884F4A13403C
S11314206B802DE70423F2691342FCD17268C02358
S11314309B0213437360F0E7AB681A780423F169E5
S11314400B42FCD12823F254AB680133AB606B68C8
S1131450013B6B6014E79B0700D411E76A68002A1C
S113146029D04B0727D40301DB0F013A6A60002A15
S113147000D007E1002B00D10AE16B881BB2002BDE
S113148008DA0423F2691342FCD17268C0239B0278
S1131490134373606B88314A13406B80A9684B1CFB
S11314A0AB600422F3691A42FCD12823F35C0B706D
S11314B002233376E4E6022333760220404244E7F3
S11314C00422E3691A42FCD16268C0239B021343DD
S11314D06360B6E032421BD16B885B054BD528882C
S11314E0C00906260640E3691A42FCD1606A8023DB
S11314F0DB011840F12318433043E3691A42FCD15D
S113150060626B88164803406B800023019383E07C
S11315106B68002B04DD6B888020400103436B80E3
S11315206B881BB2002B1DDB6B880C4803406B805F
S113153002235B4201936FE0DC500000C905000008
S1131540850C0000CA050000CB0500009E050000C4
S1131550FFFFFBFFFE070000FFFF0000FFFEFFFF91
S1131560FFFBFFFFE3691A42FCD16068C0239B02C2
S113157003436360D8E76B68002B13D16B881BB2FD
S1131580002B06DB6B88624803406B8000230193C9
S113159042E0E3691A42FCD16068C0239B02034322
S11315A06360EFE7AB681878E3691A42FCD128233B
S11315B0E054AB680133AB606B68013B6B600023A4
S11315C0019329E0002001905046184224D06B6812
S11315D0002B46D0324244D16046C00E3840013B15
S11315E06B60002B00D07FE0002800D182E06B8884
S11315F01BB2002B2CDB6B88454803406B80A8682A
S1131600431CAB60E3691A42FCD12823E35C0370FA
S113161053462376002301936B885E46334226D0DB
S11316202E69337EDBB23B4819423FD1337EDBB2B5
S113163001380028F8D14B465B881BB2002B00DA36
S11316403EE76B88324A13406B80052040420FE02E
S1131650E3691A42FCD16068C0239B0203436360C0
S1131660C9E75346237602235B420193D4E70198EA
S113167003B03CBC90469946A246AB46F0BD06205A
S11316804042F5E7012A00D008E7002B00D105E726
S11316900423F2691342FCD172688023DB021343F2
S11316A073606B68002B00D1E7E6F7E62068844698
S11316B0E0690242FCD1668BB6B21F4200D181E7D9
S11316C05346334200D105E727766B8880204001DA
S11316D003436B806B880E4803406B803E4070422E
S11316E07041431F019397E7012B00D087E700283F
S11316F000D184E7E3691A42FCD163688020C00208
S1131700034363606B68002B00D170E777E7C04642
S1131710FFFEFFFFFFFF0000024B034A5A60052251
S11317201A60704710E000E0FFFFFF0070B50B0E79
S11317305E1EF6B2002B13D034000E4A0E4D8020EC
S113174040025560956013680342FCD0013CE4B24A
S1131750FF2CF6D13306F61A084B9C4661447118E7
S1131760044B596099601900802252020B6813429D
S1131770FCD070BD10E000E0FFFFFF00010000FF9F
S11317800369114A9A18920A0E32D0B212060AD488
S11317901F21014001228A4080210C484250BFF39E
S11317A04F8FBFF36F8F03219A681142FCD11A68DF
S11317B002218A431A6001399A681142FCD11A68DD
S11317C001210A431A60704700ECFFBD00E100E00C
S11317D00269032193681942FCD1136802210B4367
S11317E0136070470269032193681942FCD113689E
S11317F002218B43136070470369D86E70470269F6
S1131800032193681942FCD110688007C00F704708
S113181070B505000469E36ADB0705D50123E362BB
S11318200368002B00D09847A36A1B0706D508233A
S1131830E3626B68002B01D02800984770BD00005C
S113184010B50B4B9C466044800AC0B200280DD0F2
S1131850022808D0EA22520006490020064B984785
S11318600120404210BD013840B2FBE70020FBE7F5
S113187000ECFFBD18510000850C000070B50E008F
S1131880150004692000054B9847E66603010448E7
S1131890C01843781C339B001D5170BD41180000D3
S11318A0F850000010B504692000084B9847E16E19
S11318B003010748C01843781C339B001B59FA20C6
S11318C080005843034B984710BDC04641180000A0
S11318D0F8500000BD1F0000F0B5C64600B5070073
S11318E00C00664BCD18AD0AEDB2654B1B78AB42CC
S11318F000D189E02423624AD35CAB4200D17FE06B
S1131900C022FF325F4900205F4B984701235B42AE
S1131910984620005D4B984706003C61FB225949DC
S11319200120594B98470122A3681A42FCD1032293
S1131930A3681A42FCD123689B0700D596E00122D4
S1131940A3681A42FCD12368012213432360A368CD
S11319501A42FCD14146CB0043449B00484AD31869
S113196058680322A3681A42FCD12060CB005B189C
S11319709A00434B9B181A7A62715A7AA277DB68F1
S113198023623201424B9B18DA68A3681B05FCD121
S1131990E26332013E4B9B185A68A3681B05FCD1D5
S11319A0226432013A4B9B185B78002B2ED1384BC2
S11319B09E18B268CB0059188900314B59184A61F6
S11319C0626402232371334B9C4249D0324B9C42C4
S11319D049D00E35EBB22A064ED41F221A400123F9
S11319E093402E4A80215350BFF34F8FBFF36F8F24
S11319F00131FF3153501360002004BC9046F0BD08
S1131A0001235BB2984684E70023FAE7012B0FD049
S1131A10022B19D0032B2CD136011D4B9E19B26811
S1131A20CB0059188900164B59180A622265C8E779
S1131A303601174B9E19B268CB0059188900104B18
S1131A4059188A61A264BCE73601114B9E19B26829
S1131A50CB00591889000A4B5918CA61E264B0E7EF
S1131A600F4B1F60B5E70E4B5F60B2E71120404299
S1131A70C3E71C204042C0E70020BEE700ECFFBDE6
S1131A800000002018510000850C000041180000DF
S1131A90F850000000140042001C004200E100E085
S1131AA02C01002070B504000E001500431E98415F
S1131AB0C0B2B72252000D490D4B9847002E08D1F1
S1131AC02369002D02D101225A6204E001229A62A4
S1131AD001E0012E00D070BD2369002D02D0082240
S1131AE09A62F8E708225A62F5E7C04618510000E6
S1131AF0850C0000014848307047C04600000020B3
S1131B0010B5024B1868024B984710BD2C010020F9
S1131B101118000010B5024B5868024B984710BDCD
S1131B202C010020111800000269032113691942D5
S1131B30FCD1136802210B4313607047026903212F
S1131B4013691942FCD1136802218B431360704757
S1131B500269032113691942FCD110688007C00F80
S1131B607047000010B50C4B984211D00B4B9C46AB
S1131B706044800A0A4B1B78C0B283420AD06A22AE
S1131B80FF3208490020084B98470120404210BD0D
S1131B900420EFE70020FAE70008004300E0FFBD5F
S1131BA06C00002030510000850C000070B5050069
S1131BB00C0008003F4B98472C61012223691A420C
S1131BC0FCD1032223691A42FCD123689B0700D568
S1131BD067E0012223691A42FCD1236801221343DE
S1131BE0236023691A42FCD183001B189B00324AEC
S1131BF0D3185968032223691A42FCD12160830057
S1131C001B189B002C4AD3189A7AE2731B89E38031
S1131C100323237309330B40082B35D0002B43D106
S1131C2083001B189B00244AD3189A89A2831B8A19
S1131C30E383224B9C4231D083001B189B001E4A35
S1131C40D3185B785BB2002B31DB1F221A400123CF
S1131C50934080221A498B50BFF34F8FBFF36F8F8D
S1131C60830018188000144B18180123C356002051
S1131C70002B08DB613A1A40012393400A00C0217B
S1131C8049005350136070BD83001B189B000A4A1F
S1131C90D318DA68E2611B692362CAE7094B1D6045
S1131CA0CAE711204042EEE701204042EBE7002062
S1131CB0E9E7C046651B00006C00002000200042DC
S1131CC000E100E03401002070B50D001400066945
S1131CD030000B4B98470B4983001A1892008A185E
S1131CE0D560146153680C221340082B04D0ADB2A4
S1131CF0B583A4B2F48370BDF5613462FBE7C046DA
S1131D00651B00006C00002010B504692000084B1E
S1131D109847830018188000064B181843680C2253
S1131D201340082B02D0A08B80B210BDE069FCE701
S1131D30651B00006C00002010B5046920000C4BEA
S1131D4098478300181880000A4B181843680C221F
S1131D501340082B09D0A18B89B2E38B9BB2FA20E4
S1131D6080005843044B984710BDE169236AF6E7A5
S1131D70651B00006C000020BD1F000070B50469E5
S1131D802000164B98470500CB2215490120154B1E
S1131D909847A80040198000134B18180123C35614
S1131DA0002B0ADB1F221A400123934080220F4993
S1131DB08B50BFF34F8FBFF36F8F032223691A42F7
S1131DC0FCD12368022293432360013A23691A4217
S1131DD0FCD1236801221343236070BD651B0000FE
S1131DE030510000850C00006C00002000E100E090
S1131DF070B504000E001500431E9841C0B2902235
S1131E0052000D490D4B9847002E08D12369002D2F
S1131E1002D101221A7204E001225A7201E0012E59
S1131E2000D070BD2369002D02D002225A72F8E757
S1131E3002221A72F5E7C04630510000850C0000FA
S1131E40014814307047C0466C00002070B50C4B3C
S1131E501D682C69A37ADB0706D50123A3722B68BE
S1131E60002B01D028009847637A9B0706D50223EC
S1131E70A3726B68002B01D02800984770BDC04640
S1131E803401002010B5084B9847084B9847084B7D
S1131E909847084B9847084A00210020074B984769
S1131EA0074B9847FEE7C046150100004D020000AD
S1131EB03D0300000902000044510000E503000056
S1131EC0891F000010B50B00002809D1110018006B
S1131ED0054B9847002800DB10BD01204042FBE77A
S1131EE001204042F8E7C046411F000010B50B0036
S1131EF00138022809D811001800054B984700281A
S1131F0000DB10BD01204042FBE701204042F8E71E
S1131F10651F000070B50600064D2B689868002107
S1131F20054CA0472B6858680021A047034B1E604E
S1131F3070BDC046A40000201938000038010020FC
S1131F4010B50400054B1868002804D08AB221009B
S1131F50034B984710BD0020FCE7C0463801002021
S1131F609D0A000010B50400054B1868002804D031
S1131F708AB22100034B984710BD0020FCE7C046FD
S1131F8038010020690A000010B50248024B984746
S1131F9010BDC046505100000538000010B5044C77
S1131FA02000044B98472000034B984710BDC046BF
S1131FB064010020590C0000151F00000022430892
S1131FC08B4274D303098B425FD3030A8B4244D3FD
S1131FD0030B8B4228D3030C8B420DD3FF2209023F
S1131FE012BA030C8B4202D31212090265D0030BFE
S1131FF08B4219D300E0090AC30B8B4201D3CB03F4
S1132000C01A5241830B8B4201D38B03C01A524135
S1132010430B8B4201D34B03C01A5241030B8B4237
S113202001D30B03C01A5241C30A8B4201D3CB0222
S1132030C01A5241830A8B4201D38B02C01A524107
S1132040430A8B4201D34B02C01A5241030A8B420A
S113205001D30B02C01A5241CDD2C3098B4201D322
S1132060CB01C01A524183098B4201D38B01C01AA0
S1132070524143098B4201D34B01C01A5241030917
S11320808B4201D30B01C01A5241C3088B4201D3C6
S1132090CB00C01A524183088B4201D38B00C01A73
S11320A0524143088B4201D34B00C01A5241411A9A
S11320B000D20146524110467047FFE701B50020A7
S11320C000F006F802BDC0460029F7D076E7704755
S11320D07047C04670B500220C4B04000D0001F09F
S11320E0C3F9002804D12000290001F0DBF870BDF9
S11320F0064B00222000290000F0BEFD01F0D2F8BA
S113210080231B069C466044F1E7C0460000E04182
S1132110F0B557464546DE464E46E0B54C000E0344
S113212087B0834692461D008046360B640DCF0F60
S1132130002C4FD06F4B9C4235D08023420F1B04A0
S1132140F600134333439946C30098466A4B00266E
S11321509C460023644403932B031B0B9B466B0098
S1132160ED0F50465B0D01955ED0624A934253D009
S11321705A46D1008022400F120402430A43934678
S11321805246D1005C4A94460022634438006840B9
S113219084460290E41A16430F2E00D9B4E0574B3C
S11321A0B6009B599F460300334399466CD10023E4
S11321B09846023308260393CEE7CB464146039A5A
S11321C00197022A65D1019B4A4C9C4600230022B8
S11321D098466BE00300334399464ED0002E00D15D
S11321E0BCE1300001F04AF903000B3B1C2B00DD7D
S11321F0ACE11D22D31A5A460100DA4008398E4058
S11322001300334399465B468B40984600233C4C6D
S11322100026241A03939FE751465A46114329D1B5
S1132220002293460232B1E7594601431ED05B4671
S1132230002B00D19EE1584601F020F903000B3B2E
S11322401C2B00DD8FE102005946083A91408B4671
S11322501D21CB1A5146D9400B0059460B43514618
S11322609B469140264B00221B1A8FE70023012234
S11322709B468BE75146032288E7002398460133A7
S113228004260024039367E70323B14603930C2633
S113229062E7032A00D15CE2019B012A00D0E4E159
S11322A013409C4600230024002298460021120378
S11322B0130B0A0D12051A432305124C4046224003
S11322C0134362465B00D2075B081343190007B04F
S11322D03CBC90469946A246AB46F0BD0023802202
S11322E09C4612039846034CE0E70023014C00226D
S11322F09846DBE7FF07000001FCFFFF6851000080
S11323000DFCFFFFFFFF0F80D94500D939E100D153
S113231034E1002346464D469A46013C5B460A0E8C
S11323201B021A430B02170C039313041B0C3900F2
S1132330280090460193FFF741FE0200019B83466B
S11323405A43280039009146FFF7BEFE350C0904B4
S11323500D43A9450DD95B464544013BA84500D929
S11323603AE1A94500D837E102235B429C46454443
S1132370E3444B46EB1A390018000493FFF71EFEA2
S1132380019B05004343390004989946FFF79CFEDE
S1132390330409041B0C0B43994509D943446A1EB1
S11323A0984500D91AE1994500D817E1023D434404
S11323B04A469B1A5A4612042A4303999346100C20
S11323C00A0C914609045A46090C4E460D001204A3
S11323D0120C4543059151437243704352190E0C3C
S11323E0B218954203D980256D02AC466044150CA1
S11323F009041204090C28185218834200D2CEE0B2
S113240000D1C8E01D1A53469E1AB2459241524269
S1132410AB1A9A46984500D117E139001800FFF726
S1132420CDFD019B05004343390050460493FFF75B
S11324304BFE04980B04310C1943884209D94144DA
S11324406B1E884500D907E1884200D804E1023DAB
S11324504144049BCB1A180039000493FFF7AEFDE6
S1132460019B82464343390004980193FFF72CFEF5
S113247001980B043104090C194388420DD95346C1
S11324804144013B884500D9E8E0884200D8E5E0B2
S113249002235B429C464144E244019B2D04CE1A34
S11324A051462943059D4F462A000B04080C1B0C7A
S11324B05A4345437B4378435B19170CFB189D42F1
S11324C003D980256D02AC4660441D0C12041B0424
S11324D0120C28189B18864200D293E000D18EE09B
S11324E001231943A04BE318002B00DC99E04A07B1
S11324F000D09EE05A46D20106D55A469B4B1A405C
S113250080239346DB00E318994A934268DD012354
S1132510029A984C1A400023944698460022C5E635
S113252080224B46120313420AD05B46134206D163
S11325301A431203120BAC4688468E4CB6E64B4641
S11325401A431203120BBC468A4CAFE603005A46E8
S1132550283B9A4000239146984657E6584600F097
S11325608DFF203040E603005246283B9A4000216C
S1132570934677E600F082FF20305FE6884500D27C
S1132580C7E64B46DE075D0843465B081E434346E9
S1132590DB079A46C2E60025924500D333E7039E43
S11325A05946B446E244B245AD416D424544EB1848
S11325B00139984507D2984200D97FE000D1BCE0A8
S11325C01D1A8B461FE79845FAD1039D5545F2D94C
S11325D043468B461D1A16E79B46CAE61500E7E6F6
S11325E05A46C90852070A435B0590465C0D5A4691
S11325F00123029952021940120B8C4656E6002B15
S113260000D16FE746444A1EB04529D911008642DD
S113261000D065E7039A934200D061E762E70121A5
S113262049420120C21A382A21DD029B03409C46FC
S113263038E60F220A40042A00D15BE70A00111D84
S1132640914292415242934454E7474BE318002B82
S1132650E5DD01225242F2E71D00FAE69A461CE744
S1132660B04239D86ED011003AE702933AE71F2AF4
S11326703CDC20239B1A0C005846994098404B1E82
S113268099415B46D440D340204308431A00430792
S113269009D00F230340042B05D00100081D8842F4
S11326A09B415B42D21813023AD50123029A0124BA
S11326B01A400023944698460022F7E50221494235
S11326C08C46039DE344AC46E244AA45AD416D42C9
S11326D04544ED182D1A96E68A1E03994D008D4245
S11326E0894149424144761803958FE71F204042AF
S11326F0C31A5846D8400300202A28D040205D46FB
S1132700821A954029434A1E914119430723002206
S11327100B4009D00F2300220B400800042BBDD12D
S1132720010053075202120BC908194301238846BA
S11327300299002419408C46B8E55245BED88B4610
S1132740002560E6039D9D42C6D3110062E7002583
S1132750D8E780225B4612031A43019B1203120B33
S11327609C468846034CA1E5FF030000FFFFFFFEE3
S1132770FE070000FF070000F0B557464546DE4659
S11327804E46E0B50C0398464E00230B87B0070075
S113279092469B46760DCD0F002E6BD06D4B9E421C
S11327A035D080245B46420F2404DB0014431C43D1
S11327B0C3009946684BA3469C4600230027664401
S11327C0029343461C035A00DB0F5046240B520D60
S11327D0984600D176E05F4B9A426DD08023410F3A
S11327E01B040B435C49E4008C461C43C3000020DB
S11327F062444146B6186940721C019194460743ED
S11328000F2F00D9B0E0554ABF00D25997465B4616
S11328100343994600D087E000239B4602330827F0
S11328200293CEE742460192022867D0032800D1E2
S11328300EE2012800D062E1002300240022994620
S113284001990140CDB2002112030B0D120B1B059F
S11328501343434A240513401C436400ED076408F2
S11328602C434846210007B03CBC90469946A246FA
S1132870AB46F0BD034399464FD05B46002B00D1D5
S113288089E1584600F0FAFD03000B3B1C2B00DDE8
S11328907AE11D22D31A3A0001005C46DA40083975
S11328A08C4013008F4023439B46B94600232D4E92
S11328B00027361A029384E7534623432AD100247F
S11328C0022096E75346234320D0002C00D157E141
S11328D0200000F0D3FD03000B3B1C2B00DD49E17D
S11328E01D21CB1A51460200D9405346083A944060
S11328F093400C431B4A121A00207AE70125019BDE
S1132900144C1D400023002299469CE70024002219
S113291001206EE7534603206BE700239B460133F7
S11329200427002602934CE7032381460C270293D5
S113293047E780220023002512039946054C82E7CD
S11329405C464B4602986FE75C464B4601950298FD
S11329506AE7C046FF07000001FCFFFFA851000022
S1132960FFFF0F800DFCFFFF4A464946170C1A0C67
S11329701B041B0C08041900000C41431500884675
S113298019007D4379430395894629001500454381
S11329904D44029545462D0CAA46029D5544A94531
S11329A006D98A46802149028946CA445146039180
S11329B0290C0491414609042D04090C8846290078
S11329C0250C24044144240C0591210041438846EC
S11329D0210079438A466843414650448146080CA5
S11329E048446F43824503D98021490289464F44B4
S11329F0010C894639004944029141460F04049967
S1132A003F0C88460004C01980444146049159464D
S1132A100F0C0904090C884659438A46390051436E
S1132A20894641464A435146090C8B467B43D2189A
S1132A305A44934203D980235B029B46D9445146AE
S1132A400904090C8A46414661437C43130C120471
S1132A504B445244A1468A463C0041466C434D4394
S1132A6051464D440F0C7D19A94503D980214902D3
S1132A7088464444049F0399B84641448B468345A1
S1132A80804141428846514608042F04000C3F18F7
S1132A905846029910188946904292414F44BA46CA
S1132AA0524299469346C244D144CB448F42BF41DB
S1132AB0C245894199459B41934592417F42494290
S1132AC02D0C52420F435B4213437F19FF185B46A0
S1132AD03C19DB0D059A64021C43430213435D1E3B
S1132AE0AB415A46C00D034352021343E20156D58B
S1132AF001205A0803401343E207134364085A4869
S1132B00604400284DDD5A0709D00F221A40042AD8
S1132B1005D01A1D9A429B415B42E4181300E2015E
S1132B2004D58020514AC00014406044504A904269
S1132B3000DDE3E60125DB0862071A436402019B1A
S1132B409146220B4405640D1D407CE680225946C3
S1132B501203114208D0144206D122431203120B6D
S1132B6045469946434C6EE65B461A431203120BE4
S1132B70404C68E603005446283B9C400023B9E6D9
S1132B8000F07CFC2030A6E60300283B9F40002395
S1132B90BB4699468AE600F071FC203074E6B446E0
S1132BA0ADE701252A1A382A06DD019B00241D40C1
S1132BB000230022994646E61F2A21DC2025200016
S1132BC0AD1A1E00AB40A840D6405D1EAB41304359
S1132BD01843D440430709D00F230340042B05D0E6
S1132BE00300181D98429B415B42E418230221D53F
S1132BF00125019B01241D4000230022994622E661
S1132C001F2521006D42281AC1400800202A1DD02A
S1132C105F35AA1A944023435C1EA341072503434E
S1132C201D400022002D09D00F2200241A40180054
S1132C30042AD6D1030065076402220BDB082B4368
S1132C4001259946019B00241D40FCE50024E2E790
S1132C50802201251203224301991203120B0D4015
S1132C609946044CEFE5C046FF030000FFFFFFFE5A
S1132C70FE070000FF070000F0B54646D6464F4663
S1132C800C03C0B5CD0F4E00610A440F0C43C100C4
S1132C905800400D84468A460F001903500F490A14
S1132CA00143C648760DA846DB0FD200844500D107
S1132CB0D8E001204340AB4200D1A6E06046351A7B
S1132CC0002D00DC05E1002810D10B00134300D1D6
S1132CD0D7E06B1E002B00D04BE153469F1ABA4538
S1132CE08041641A4042241A01261EE0B34B9E42DE
S1132CF048D080231B041943382D00DD19E11F2D12
S1132D0000DD4CE120230F005B1B10009A409F4024
S1132D10E840531E9A41E940074317435346DF1BDB
S1132D20611ABA45A44164420C1B230200D4C5E0D5
S1132D306402650A002D00D1F6E0280000F09EFB35
S1132D400300083B1F2B00DDE9E020223C00D21ADF
S1132D509D40D4409F4025439E4200DDDBE09E1B06
S1132D60731C1F2B00DD0AE120223800D21A29002F
S1132D7097402C009140D8407A1E9741DC400026B1
S1132D8001430F437B0709D00F233B40042B05D09D
S1132D903B1DBB42BF417F42E4191F00230225D5DE
S1132DA0864B01369E4200D1AFE0854B01251C4085
S1132DB043466207FF08640276051743240B760D29
S1132DC01D4000212403230B0C0D7E4A24051C43C3
S1132DD01440330523435B00ED075B082B433800A5
S1132DE019001CBC90469946A246F0BD01254346F5
S1132DF06207FF081743E4081D40704B9E4236D01B
S1132E0024037605240B760DDBE76346F31A002BC7
S1132E1000DC94E06046002835D068488642B1D092
S1132E2080273F043943382B00DCFDE00A431700B8
S1132E3000217A1E9741574457458041091944425D
S1132E400C1923023AD55D4B01369E4200D14BE169
S1132E5001225B4B1C407B0817401F43E2071743CA
S1132E6064088FE70800104300D024E721E723001B
S1132E703B4300D1B9E18022120314432403240B01
S1132E809FE72E007EE70800104300D1CAE0581ED9
S1132E908446002800D0E7E052445245804164183B
S1132EA04042241817000126230207D50226CFE743
S1132EB064462C4300D1B3E12C0067467B0700D065
S1132EC062E76307FF081F4301254346E4081D40EA
S1132ED093E7002D78D1751C6D056D0D012D00DC77
S1132EE0F2E05046801A8245BF41651A7F42ED1BCD
S1132EF08446280200D48CE05046171ABA42924104
S1132F000C1B5542651B984614E7012543460024D3
S1132F101D40002755E72A4CF61A2C4032E73D00A5
S1132F2028388540002717E7380000F0A7FA20303A
S1132F3006E70A43170000217A1E9741EEE6002BAC
S1132F4000D0E5E0731C9C465B055B0D012B00DCA7
S1132F509FE01A4B9C4500D1C5E052445245804144
S1132F60641840422418E707520817436408664669
S1132F7008E71248854200D185E01D00BCE629001F
S1132F801F3EF140202B00D17FE04022D31A9D4008
S1132F902F437D1EAF4100240F4300268EE72B00F4
S1132FA00F00203BDF40202D71D040235D1BA94042
S1132FB00A43511E8A4100211743AFE6FF07000070
S1132FC0FFFF7FFFFFFF0F80002E3ED0B34EB445BE
S1132FD045D0802636046D423443382D00DDA8E008
S1132FE01F2D00DD1FE1202627005046761BB74029
S1132FF0E84007435046B040461EB041EC403843D9
S1133000171ABA4292410C1B5242A41A66469846B9
S11330108BE6644667462C4300D08BE600250026E9
S11330200027EAE61E00ADE61F2B60DC2027F81A15
S11330300F00844687401000D84007436046824012
S1133040501E8241D9401743F5E6260050460643F8
S113305005D0ED43002DD3D0904EB445BDD10C0026
S11330601700664698468DE68C4883420BD063462B
S1133070D9E6002D00D096E00800104300D1E2E02C
S11330800C0017009846854E7CE6002580E7002159
S11330908EE7230050460343002E00D0A8E0002B07
S11330A000D1DEE00B00134300D16BE652445245DD
S11330B080416418404224181700230200D4FDE61E
S11330C0774B66461C405DE6250050460543002EBE
S11330D0CFD1002D4FD10C00144300D1A0E00C003F
S11330E0170098464EE666460024002785E61F0032
S11330F00800203FF8400700202B00D18EE040203C
S1133100C31A99400A43511E8A410021174392E68B
S1133110002E14D126005046064362D0DB43002B18
S11331205CD187189742924164185242A4186646AB
S113313087E650462043441EA041002460E7574ED2
S1133140B4454ED0802636045B423443382B00DD30
S11331507FE01F2B00DD8BE0202627005046F61A67
S1133160B740D84007435046B040461EB0410743DD
S1133170DC40BF18D6E70D00154300D102E65046E7
S1133180801A8245BF41651A7F42ED1B844628029E
S113319000D48DE65046171ABA4292410C1B524293
S11331A0A41A9846EEE50D00154300D16BE750468E
S11331B06707C00807438020E4080003044207D0DF
S11331C0CD08054204D12C009846D70849070F437F
S11331D07B0FE4001C43FF00304ED3E52F4EB44573
S11331E0B4D10C0017006646CCE500270024E8E5BE
S11331F0002B39D00B00134300D144E7C008670704
S113320007438020E40800030442E1D0CB080342D2
S1133210DED1D70849070F431C00D9E7002171E725
S113322000250027E9E52E002700203EF740202D49
S11332302FD04026751BAC4050462043441EA0416D
S113324000243843DCE6802400252403134E0027A1
S1133250D3E5504620430700781E87410024BF1859
S113326060E70C0017008DE50C0017000B4E89E594
S11332701E002700203EF740202B0CD04026F31AD6
S11332809C4050462043441EA04107430024BF18DD
S113329048E70024D0E70024F3E7C046FF07000016
S11332A0FFFF7FFF30B5134D0A034B00120B5B0D7C
S11332B0C90F0024AB4210DD0F4CA3420FDC802465
S11332C00E4D64032243ED1A1F2D0BDD0C48C31A67
S11332D0DA405442002900D11400200030BD094BCB
S11332E0CC18FAE7084CE840A44663449A400243E9
S11332F0EFE7C046FE0300001D0400003304000095
S113330013040000FFFFFF7FEDFBFFFF70B50028F3
S113331030D0C317C4185C40C50F200000F0AEF8CD
S1133320174B184A1B1AD21A1F2A18DD164AD21A2A
S11333309440002224035B05240B5B0D0021100044
S113334024030A0D240B12052243104C1B052240B2
S113335013435B00ED075B082B43190070BD21008C
S113336091400A000B21081AC4405B052403240B76
S11333705B0DE3E70025002300240022DEE7C046BE
S11333801E0400003304000013040000FFFF0F803C
S113339010B5041E28D000F071F8154B154A1B1AFD
S11333A0D21A1F2A15DD144AD21A9440002224038B
S11333B05B05240B5B0D0021100024030A0D240B74
S11333C0120522430D4C1B05224013435B00590890
S11333D010BD210091400A000B21081AC4405B056E
S11333E02403240B5B0DE6E7002300240022E2E71C
S11333F01E0400003304000013040000FFFF0F80CC
S11334008446101C62468C46191C634600E0C04684
S11334101FB500F0EFF8002801D40021C8421FBDF9
S113342010B500F049F84042013010BD10B500F06D
S1133430E1F8002801DB002010BD012010BDC046CA
S113344010B500F0D7F8002801DD002010BD0120E0
S113345010BDC04610B500F069F8002801DC00205A
S113346010BD012010BDC04610B500F05FF8002863
S113347001DA002010BD012010BDC0461C2101232B
S11334801B04984201D3000C10391B0A984201D343
S1133490000A08391B09984201D30009043902A221
S11334A0105C40187047C046040302020101010188
S11334B00000000000000000F0B54F464646D64626
S11334C05C00C0B51F03DB0F9A46174B0E034D007B
S11334D084468046360B6D0DC90F91463F0B640D33
S11334E001209D4208D09C4201D0A5420BD01CBCB7
S11334F090469946A246F0BD63463343F7D1AC42A9
S1133500F5D13A43F3D10120BE42F0D1C845EED102
S1133510514507D0002DEAD163461E433000461EB4
S1133520B041E4E70020E2E7FF070000F0B54546BC
S1133530DE4657464E46E0B51F033D0B2C4F0E03A7
S11335404C00AB465D008446360B640DC90F9046B3
S11335506D0DDB0FBC422AD0254FBD422DD0002C6F
S11335600FD130430700814678427841C0B2002D24
S113357017D15F463A4314D14B460020002B0AD0A2
S113358006E0002D02D15846024301D0994218D0DA
S11335904842012108433CBC90469946A246AB46AA
S11335A0F0BD0028F2D00120013B1843F3E73700B7
S11335B00743D1D002204042EDE75F461743CED007
S11335C0F8E7AC42E4DC03DA481E01210843E2E7F1
S11335D05E45DDD806D000205E45DCD20123481EBE
S11335E01843D8E7C445D3D80020C445F6D3D2E75E
S11335F0FF070000F0B54E464546DE4657465C00E0
S1133600E0B51F03DB0F99462A4B0E034D00C90F8B
S11336108446360B6D0D8B4690463F0B640D9D42E0
S113362020D0244B9C4222D0002D12D1304343425F
S11336304341DBB2002C1FD0002B0CD04B460120A1
S1133640013B034318003CBC90469946A246AB4656
S1133650F0BD002C16D0CB4517D05B465942012350
S11336600B43EFE7310002230143EBD1D9E73900E3
S113367002231143E6D1D7E73A43DDD100230028E2
S1133680E0D0EAE73A43E6D1E7E7A542E5DC05DB2B
S1133690BE42E2D807D00023BE42D3D2594601230A
S11336A001390B43CEE7C445D7D80023C445F5D32D
S11336B0C8E7C046FF07000070B500260C4D0D4C4E
S11336C0641BA410A64209D1002601F0D9FD0A4DBD
S11336D00A4C641BA410A64205D170BDB300EB587C
S11336E098470136EEE7B300EB5898470136F2E706
S11336F08C5200008C5200008C520000905200004A
S113370003008218934200D1704719700133F9E71E
S11337100FB40B4B13B51C68002C05D0A369002B08
S113372002D1200000F0F2FA05AB049AA16820004F
S1133730019300F0C7FC16BC08BC04B01847C0468F
S1133740A400002070B505000E00002804D0836991
S1133750002B01D100F0DAFAAB69AC68002B02D17E
S1133760280000F0D3FA244B9C420FD16C68A38943
S11337701B0702D52369002B20D12100280000F06B
S113378057F900281AD00120404270BD1B4B9C42BF
S113379001D1AC68EBE71A4B9C42E8D1EC68E6E750
S11337A0013B0136A360002B04DAA269934216DBC5
S11337B00A2914D023685A1C226019703178A3682E
S11337C00029EDD1013BA360002B0FDA22000A315E
S11337D0280000F0D7F8431CD5D00A20D5E72200F2
S11337E0280000F0CFF8431CE8D1CCE70A20236876
S11337F05A1C22601870C8E70C5200002C520000BA
S1133800EC51000010B5034B01001868FFF79AFF54
S113381010BDC046A40000204A424A41802310B58E
S11338205200DB0000F002F810BD0000F0B51D00EE
S11338304F4B85B01E6804000F000092002E05D087
S1133840B369002B02D1300000F060FA494B9C426E
S113385050D17468009B022B05D0012B00D984E061
S1133860002D00DA81E02100300000F0E1F9616B05
S1133870002908D023004433994202D0300000F0DC
S113388051FB002363630023A3616360A3891B06C8
S113389003D52169300000F045FBA389364A134063
S11338A0A381009B022B5AD003AB02AA2100300053
S11338B000F0C2FAA3891843A081002D24D1029DEF
S11338C0280000F025FB0195071E42D1029B0193BD
S11338D0AB4239D1012040420223A2891343A38180
S11338E00023A36023004733236023610123636122
S11338F005B0F0BD214B9C4201D1B468AAE7204B2E
S11339009C42A7D1F468A5E7002FD9D0B369002B56
S113391002D1300000F0FAF9009B012B03D1A389F6
S1133920009A1A43A2810820A38927602761656150
S1133930184018D0012018400023984211D06D423D
S1133940A360A5611800D3E7019800F0E1FA071E0F
S1133950C0D08023A289019D1343A381D6E7002010
S1133960BAE7A560C4E7A060C2E701204042BFE710
S1133970A40000200C5200005CF3FFFF2C52000056
S1133980EC510000F8B505000E001400002804D026
S11339908369002B01D100F0B9F9224B9C422DD14F
S11339A06C68A369A360A3891B0731D52369002B25
S11339B02ED023682269F7B2981A6369F6B2984246
S11339C005DB2100280000F033F9002826D1A36884
S11339D00130013BA36023685A1C22601F70636995
S11339E0984204D0A389DB071AD50A2E18D12100E6
S11339F0280000F01DF9002812D00FE00A4B9C4269
S1133A0001D1AC68CDE7094B9C42CAD1EC68C8E748
S1133A102100280000F00CF80028CAD001267642C4
S1133A203000F8BD0C5200002C520000EC51000094
S1133A30364B70B51D6806000C00002D05D0AB692F
S1133A40002B02D1280000F061F9314B9C420FD1C8
S1133A506C680C23E25E93B219072DD4D90611D4F5
S1133A6009230120336037331343A381404270BDDF
S1133A70284B9C4201D1AC68EBE7274B9C42E8D130
S1133A80EC68E6E75B0713D5616B002908D02300D7
S1133A904433994202D0300000F044FA00236363B7
S1133AA02422A3899343A3810023636023692360B1
S1133AB00823A2891343A3812369002B0BD1A021DE
S1133AC08022A389890092000B40934203D02100F5
S1133AD0300000F0D9F90123A289134011D000234A
S1133AE0A36063695B42A361002023698342BED162
S1133AF00C23E25E1306BAD540231343A381013895
S1133B00B5E7920700D46369A360EDE7A400002041
S1133B100C5200002C520000EC510000F7B58A89C9
S1133B2005000C00130760D44B68002B04DC0B6CFD
S1133B30002B01DC0020FEBDE76A002FFAD0002331
S1133B402E682B6080235B011A4034D0606DA389FA
S1133B505B0706D56368C01A636B002B01D0236C26
S1133B60C01A0200216A00232800E76AB847A18925
S1133B70431C06D12B681D2B31D82C4ADA40D307BD
S1133B802DD50023636023692360CB0405D5431C32
S1133B9002D12B68002B00D16065616B2E60002977
S1133BA0C8D023004433994202D0280000F0BAF967
S1133BB000206063BFE70123216A2800B847431C43
S1133BC0C5D12B68002BC2D01D2B01D0162B01D1DF
S1133BD02E60AFE74023A2891343A381ABE74023C0
S1133BE00B430120A3814042A5E70F69002FA1D018
S1133BF00B680F60DB1B01930023920700D14B6914
S1133C00A360019B002B00DC94E7019B3A00216A2E
S1133C102800A66AB047002803DC4023A289134386
S1133C20DFE7019B3F181B1A0193EAE701004020DC
S1133C300B6970B505000C00002B01D1002070BD8C
S1133C40002804D08369002B01D100F05FF80B4BEE
S1133C509C4209D16C680C22A35E002BEED021009B
S1133C602800FFF75BFFEAE7054B9C4201D1AC68F3
S1133C70F1E7044B9C42EED1EC68ECE70C520000F7
S1133C802C520000EC51000010B5024900F0B2F8CB
S1133C9010BDC046313C0000002310B50400036091
S1133CA04360836081814366C281036143618361B0
S1133CB0190008225C30FFF723FD054B2462636280
S1133CC0044BA362044BE362044B236310BDC04660
S1133CD0314600005946000091460000BD460000F0
S1133CE070B568254A1E55430E002900743100F052
S1133CF063F9041E08D000212A00016046600C30DC
S1133D00A0606832FFF7FCFC200070BD836913B526
S1133D100400002B28D18364C3640365134B144A45
S1133D201B6882620193984201D1012383612000C0
S1133D3000F020F86060200000F01CF8A060200073
S1133D4000F018F80022E06004216068FFF7A4FF87
S1133D5001220921A068FFF79FFF02221221E068D7
S1133D60FFF79AFF0123A36113BDC046E851000089
S1133D70893C0000F8B51E4B07001E68B369002B90
S1133D8002D13000FFF7C2FF4836B4687368013BC4
S1133D9004D53368002B07D03668F6E70C22A55EFD
S1133DA0002D0DD06834F2E704213800FFF798FFA6
S1133DB030600028F0D10C2304003B602000F8BDE3
S1133DC0012320005B42E3810233A3816566256001
S1133DD0A560656025616561A561082229005C30E4
S1133DE0FFF78EFC6563A563A564E564E6E7C0465A
S1133DF0E8510000F7B5040007000026019148349B
S1133E00002C01D13000FEBD6368A5680093009BBF
S1133E10013B009301D52468F2E7AB89012B08D953
S1133E200E22AB5E013304D029003800019B984771
S1133E3006436835EBE7000070B50E001D000E2345
S1133E40C95E90B01400002907DA00232B60B389FF
S1133E501B0611D48023DB000FE001AA00F05AFCFA
S1133E600028F2DBF022029B12021340054A9B1841
S1133E705A4253412B60EDE740230020236010B0E9
S1133E8070BDC04600E0FFFFF7B502268B89050030
S1133E900C00334206D023004733236023610123FF
S1133EA06361F7BD01AB6A46FFF7C6FF00990700DF
S1133EB0280000F081F8002808D10C22A35E9A059E
S1133EC0EFD4032293431E43A681E4E70F4BAB6276
S1133ED08023A28920601343A381009B2061636136
S1133EE0019B002B0DD00E23E15E280000F024FC82
S1133EF0002806D00322A38993431A000123134305
S1133F00A381A0893843A081CBE7C046893C000047
S1133F1010B5034B0100186800F04EF810BDC04600
S1133F20A400002070B50500002910D00C1F2368E0
S1133F30002B00DAE418280000F02FFC1D4A136857
S1133F40002B05D163601460280000F027FC70BDCD
S1133F50A34209D9216860188342F3D118685B68C9
S1133F6041182160EEE713005A68002A01D0A242EA
S1133F70F9D919685818A0420BD1206809185818A3
S1133F8019608242E0D110685268411819605A6081
S1133F90DAE7A04202D90C232B60D5E72168601828
S1133FA0824203D1106852684118216062605C60EB
S1133FB0CAE7C0463C010020032370B5CD1C9D43D5
S1133FC0083506000C2D1ED20C25A9421DD8300040
S1133FD000F0E3FB254A14682100002919D1244C80
S1133FE02368002B03D1300000F010FB206029006F
S1133FF0300000F00BFB431C2CD10C233000336049
S113400000F0CCFB03E0002DDFDA0C23336000204A
S113401070BD0B685B1B1AD40B2B03D90B60CC1837
S1134020256003E08C420ED163681360300000F019
S1134030B5FB200007220B30231D9043C31AE7D0A1
S11340405A42E250E4E74B6863600C00EEE70C0070
S11340504968C2E70323C41C9C43A042E0D0211A50
S1134060300000F0D3FA431CDAD1C6E73C0100204B
S113407040010020936810B5013B9360002B05DAE2
S11340809469A34208DBCBB20A2B05D01368581CF1
S113409010601970C8B210BDFFF774FCFBE7F8B5E7
S11340A006000F001400D518AC4201D1002007E02F
S11340B021783A003000FFF7DDFF0134431CF3D1CF
S11340C0F8BD0000F0B59FB006000F001400059382
S11340D0002804D08369002B01D1FFF717FE7F4B22
S11340E09F425CD17768BB891B0762D53B69002B73
S11340F05FD0002306AD6B6120336B761033AB7653
S11341000294029C2378002B5DD1029BE31A049352
S11341100DD0049B029A39003000FFF7C0FF431C06
S113412000D1CCE06A69049B944663446B612378B4
S1134130002B00D1C3E00122002352426A6002A98D
S11341405432521801342B60EB60AB601370AB65D2
S113415021780522624800F015FB631C9C46002868
S113416035D12968CB0604D5532302AA20309B18E5
S113417018700B0704D553232B2002AA9B18187020
S113418023782A2B2CD000200A21099B2278303A4C
S1134190092A00D86BE000282AD0099328E0514B63
S11341A09F4201D1B7689EE74F4B9F429BD1F7686E
S11341B099E739003000FFF73BFC002899D0012033
S11341C040421FB0F0BD252B9FD001349AE7444BE9
S11341D02968C01A012383400B432B606446B7E768
S11341E0059B181D1B680590002B3ADB0993644658
S11341F023782E2B0BD16378621C2A2B3FD1059B8D
S113420002341A1D1B680592002B35DB07932178B5
S11342100322364800F0B6FA002807D0334B2A6848
S1134220C01A4023834013432B6001342178631C5C
S113423006222F480293297600F0A4FA002844D0DD
S11342402C4B002B2FD12968059B0722C90528D5A3
S11342509B189343083305936B69039A9B186B610E
S11342604FE75B42EB6002230B432B60BFE74B43FA
S113427001349B18012089E701235B42C6E7002330
S113428014000A201A006B6021783039092903D9F7
S1134290002BBCD00792BAE74243013452180123E1
S11342A0F2E70733D5E705AB00933A00124B290038
S11342B0300000E000BF0390039B0133CCD1BB89E5
S11342C05B0600D57BE70B987BE705AB00933A00D0
S11342D0094B2900300000F07FF8ECE70C52000095
S11342E04C5200002C520000EC51000052520000CD
S11342F056520000000000009F400000F7B5150072
S113430001938A680B6900900C00934200DA130051
S113431022002B6043321278002A01D001332B6033
S113432023689B0602D52B6802332B60062723687B
S11343301F4027D0230043331B785A1E9341226821
S1134340920630D42200019943320098089EB04767
S1134350431C25D0062320682A68E1680340002511
S1134360042B03D18D1AEB43DB171D40A36822698C
S1134370934201DD9B1AED180027BD4220D1002095
S113438010E00137E3682A689B1A9F42D2DA2200C0
S11343900123193201990098089EB047431CF0D1BB
S11343A001204042FEBD3020E11843310870210055
S11343B05A1C45310978A218433202331170C1E7FF
S11343C0220001231A3201990098089EB047431C29
S11343D0E6D00137D1E70000F0B58BB006920A00B1
S11343E043320793059004920A7E0C00109B6E2AB8
S11343F000D18FE017D8632A2CD008D8002A00D126
S113440099E0582A54D026004236327029E0642AB2
S113441001D0692AF7D121681A68080623D5111D2D
S11344201960156825E0732A00D188E008D86F2A3E
S113443029D0702AE7D1202209680A43226003E0C8
S1134440752A20D0782ADED12200782145321170D5
S11344506C4A30E00E001A684236111D1960136868
S11344603370012379E04906D9D5111D1960002361
S1134470D55E002D03DA2D23049A6D421370624B2E
S11344800A2703932FE020681968050603D5081D41
S113449018600D6805E04006F9D50D68081D186020
S11344A0ADB2594B082703936F2A18D00A2716E098
S11344B045310A70544A03921A682168101D186025
S11344C01568080622D5CB0702D52023194321609D
S11344D01027002D03D1202322689A432260230051
S11344E0002243331A706368A360002B5CDB042250
S11344F0216891432160002D58D1049E002B64D083
S11345002600039B42361B7833705EE04806DAD5FA
S1134510ADB2D8E709681A68080605D5111D1960F7
S1134520136862691A6006E04906F7D5111D19601F
S11345301368A28A1A800023049E236154E01A6837
S1134540111D1960166800216268300000F01AF924
S1134550002801D0801B6060636823610023049AF3
S1134560137041E02369320006990598079DA84716
S1134570431C43D0236800259B070FD4099BE068A4
S113458098423DDA18003BE02200012319320699D3
S11345900598079EB047431C30D00135E368099A5B
S11345A09B1A9D42F0DBE9E7002DA9D0049E280068
S11345B03900FDF789FD039B013E5B5C28003370E5
S11345C03900FDF7FBFC051EF1D1082F09D1236842
S11345D0DB0706D563682269934202DC3023013E7F
S11345E03370049B9B1B2361079B09AA0093210042
S11345F0069B0598FFF782FE431CB3D1012040427D
S11346000BB0F0BD6E5200005D520000002370B587
S1134610064C050008002360FCF738FB431C03D15B
S11346202368002B00D02B6070BDC046DC01002045
S113463070B50C000E25495F00F0B2F8002803DBCA
S1134640636D1B18636570BDA389024A1340A3817F
S1134650F9E7C046FFEFFFFFF8B51F008B8905009F
S11346600C001600DB0505D50E23C95E00220223CB
S113467000F074F8A389054A28001340A38132008E
S11346800E23E15E3B0000F01FF8F8BDFFEFFFFFD3
S113469070B50C000E25495F00F060F8A389421C38
S11346A003D1054A1340A38170BD802252011343F4
S11346B0A3816065F8E7C046FFEFFFFF10B50E2346
S11346C0C95E00F015F810BD70B5050008001100B2
S11346D00022064C22601A00FDF708FC431C03D19B
S11346E02368002B00D02B6070BDC046DC01002085
S11346F0002370B5064C050008002360FCF7D8FAC7
S1134700431C03D12368002B00D02B6070BDC0462E
S1134710DC010020002370B5064C050008001100E0
S11347202360FCF7C8FA431C03D12368002B00D094
S11347302B6070BDDC010020002370B5064C050021
S113474008002360FCF7BCFA431C03D12368002B48
S113475000D02B6070BDC046DC01002070B50500A0
S1134760080011000022064C22601A00FCF7AAFA85
S1134770431C03D12368002B00D02B6070BDC046BE
S1134780DC010020C9B28218904201D10020704798
S113479003788B42FBD00130F6E770477047000086
S11347A070B50500080011000022064C22601A00B2
S11347B0FDF788FB431C03D12368002B00D02B603A
S11347C070BDC046DC0100208D14AF008D10AE001A
S11347D000000000000000000000000000000000D5
S11347E0000000F80000000000000033300000006A
S11347F000100C06100C0600000000000000000071
S113480040C07840C0784000043F04043F040400E2
S1134810007088FC08300000001820FF211E0000F2
S1134820F008F000E018000000211C031E211E0007
S113483000F00888700000001E212324192721108D
S113484010160E0000000000000000000000000030
S1134850000000E0180402000000000718204000D7
S113486000020418E00000000040201807000000C7
S1134870404080F0804040000202010F010202002B
S1134880000000F0000000000101011F010101000F
S1134890000000000000000080B070000000000074
S11348A000000000000000000001010101010101FD
S11348B00000000000000000003030000000000094
S11348C00000000080601804006018060100000069
S11348D000E010080810E000000F102020100F0066
S11348E0001010F8000000000020203F20200000ED
S11348F00070080808887000003028242221300045
S113490000300888884830000018202020110E004C
S11349100000C02010F8000000070424243F2400F5
S113492000F80888880808000019212020110E00CA
S113493000E0108888180000000F112020110E00DC
S113494000380808C83808000000003F00000000D4
S11349500070880808887000001C222121221C0095
S113496000E010080810E0000000312222110F00BE
S1134970000000C0C0000000000000303000000053
S113498000000080000000000000806000000000C3
S113499000008040201008000001020408102000DC
S11349A04040404040404000040404040404040027
S11349B000081020408000000020100804020100BC
S11349C0007048080808F0000000003036010000BC
S11349D0C030C828E810E0000718272423140B006F
S11349E00000C038E0000000203C230202273820E9
S11349F008F8888888700000203F202020110E00CD
S1134A00C0300808080838000718202020100800C3
S1134A1008F808080810E000203F202020100F00AC
S1134A2008F88888E8081000203F20202320180078
S1134A3008F88888E8081000203F200003000000E0
S1134A40C03008080838000007182020221E020081
S1134A5008F808000008F808203F210101213F2040
S1134A60000808F8080800000020203F202000006B
S1134A7000000808F8080800C08080807F0000005B
S1134A8008F888C028180800203F20012638200094
S1134A9008F8080000000000203F202020203000FB
S1134AA008F8F800F8F80800203F003F003F200015
S1134AB008F830C00008F808203F200007183F001D
S1134AC0E01008080810E0000F10202020100F004C
S1134AD008F808080808F000203F2101010100003F
S1134AE0E01008080810E0000F18242438504F0084
S1134AF008F8888888887000203F2000030C302044
S1134B0000708808080838000038202121221C0081
S1134B10180808F8080818000000203F20000000CA
S1134B2008F808000008F808001F202020201F00B3
S1134B300878880000C83808000007380E01000013
S1134B40F80800F80008F800033C0700073C0300DD
S1134B50081868808068180820302C03032C302043
S1134B600838C800C83808000000203F20000000B2
S1134B7010080808C838080020382621202018000A
S1134B80000000FE020202000000007F40404000DE
S1134B90000C30C000000000000000010638C00016
S1134BA000020202FE000000004040407F000000BE
S1134BB000000402020204000000000000000000E3
S1134BC000000000000000008080808080808080E1
S1134BD000020204000000000000000000000000C9
S1134BE000008080808000000019242222223F20BF
S1134BF008F8008080000000003F112020110E0002
S1134C000000008080800000000E11202020110090
S1134C10000000808088F800000E112020103F2042
S1134C200000808080800000001F222222221300C6
S1134C30008080F0888888180020203F2020000011
S1134C400000808080808000006B949494936000C6
S1134C5008F8008080800000203F210000203F20D1
S1134C6000809898000000000020203F20200000D1
S1134C70000000809898000000C08080807F0000C1
S1134C8008F8000080808000203F24022D3020009E
S1134C90000808F8000000000020203F2020000049
S1134CA08080808080808000203F20003F20003F63
S1134CB08080008080800000203F210000203F2071
S1134CC00000808080800000001F202020201F0022
S1134CD0808000808000000080FFA12020110E0051
S1134CE00000008080808000000E112020A0FF8042
S1134CF0808080008080800020203F2120000100EF
S1134D000000808080808000003324242424190043
S1134D10008080E0808000000000001F2020000050
S1134D208080000000808000001F202020103F2091
S1134D30808080000080808000010E300806010021
S1134D4080800080008080800F300C030C300F00C6
S1134D5000808000808080000020312E0E312000F1
S1134D60808080000080808080818E701806010021
S1134D7000808080808080000021302C222130003F
S1134D8000000000807C020200000000003F404060
S1134D9000000000FF00000000000000FF00000011
S1134DA00002027C800000000040403F0000000040
S1134DB000060101020204040000000000000000DB
S1134DC00000000000000000002F000000000700A9
S1134DD0070000147F147F1400242A7F2A12006223
S1134DE064081323003649552250000005030000CF
S1134DF000001C224100000041221C000014083E57
S1134E0008140008083E0808000000A0600000081C
S1134E100808080800006060000000201008040270
S1134E20003E5149453E0000427F4000004261512E
S1134E304946002141454B31001814127F100027C8
S1134E4045454539003C4A4949300001710905038B
S1134E5000364949493600064949291E00003636BC
S1134E60000000005636000000081422410000141F
S1134E7014141414000041221408000201510906FC
S1134E8000324959513E007C1211127C007F49497D
S1134E904936003E41414122007F4141221C007FAE
S1134EA049494941007F09090901003E4149497ABC
S1134EB0007F0808087F0000417F41000020404136
S1134EC03F01007F08142241007F40404040007FA2
S1134ED0020C027F007F0408107F003E4141413EE6
S1134EE0007F09090906003E4151215E007F09192E
S1134EF029460046494949310001017F0101003F2B
S1134F004040403F001F2040201F003F4038403FAA
S1134F10006314081463000708700807006151490E
S1134F20454300007F41410000552A552A550000A1
S1134F3041417F000004020102040040404040401F
S1134F40000001020400002054545478007F4844B7
S1134F50443800384444442000384444487F0038EE
S1134F605454541800087E0901020018A4A4A47C17
S1134F70007F080404780000447D400000408084E1
S1134F807D00007F102844000000417F4000007C29
S1134F9004180478007C0804047800384444443835
S1134FA000FC242424180018242418FC007C080481
S1134FB0040800485454542000043F444020003C5A
S1134FC04040207C001C2040201C003C4030403CE1
S1134FD0004428102844001CA0A0A07C0044645471
S1134FE04C44141414141414737364313130365F44
S1134FF06932635F6275735F777269746520657285
S1135000720D00004F4C45445F4552524F523A20B6
S113501049324320706F727420696E69742065721E
S1135020722E00002E2E2F68616C2F7372632F680E
S1135030616C5F6932635F6D5F73796E632E6300C9
S11350402E2E2F68616C2F7372632F68616C5F69F9
S11350506F2E63002E2E2F68616C2F7372632F687E
S1135060616C5F70776D2E63000000002E2E2F6838
S1135070616C2F7372632F68616C5F7573617274F6
S11350805F73796E632E630000000000140020003B
S113509000010000490000000000D7000024F400D3
S11350A003000000040010400000030082E200003E
S11350B00000000004000000040010400000030091
S11350C082E2000000000000000000000000000078
S11350D00000000000000000000000002E2E2F68D9
S11350E0706C2F736572636F6D2F68706C5F73657E
S11350F072636F6D2E63000000010000CF07000093
S1135100E70300000200000002010000CF070000D6
S1135110E7030000020000002E2E2F68706C2F742D
S113512063632F68706C5F7463632E630000000018
S11351302E2E2F68706C2F74632F68706C5F7463ED
S11351402E6300004D6963726F436869700000004C
S11351500D0A48656C6C6F2041544D454C20576FC7
S1135160726C64210D00000008230000EA22000094
S1135170A4220000C2210000A4220000DC220000BE
S1135180A4220000C2210000EA220000EA2200005A
S1135190DC220000C2210000BA210000BA21000074
S11351A0BA210000202500006829000028280000FA
S11351B0282800002428000040290000402900007D
S11351C03229000024280000402900003229000070
S11351D04029000024280000482900004829000034
S11351E0482900004C2B0000A8000020000000000B
S11351F000000000000000000000000000000000AB
S1135200000000000000000000000000000000009A
S1135210000000000000000000000000000000008A
S1135220000000000000000000000000000000007A
S1135230000000000000000000000000000000006A
S1135240000000000000000000000000232D302BAF
S11352502000686C4C006566674546470030313273
S113526033343536373839414243444546003031CA
S11352703233343536373839616263646566000029
S1135280F8B5C046F8BC08BC9E467047DD00000077
S1135290F8B5C046F8BC08BC9E467047B50000008F
S11352A000000000000300000200000000000000F5
S11352B010270000000000000000000000000000B3
S11352C000000000020000000003000002000000D3
S11352D00000000010270000000000000000000093
S11352E00000000000000000D91800008117000031
S11352F0D1170000E51700007D180000FF1700001B
S1135300F9170000A5180000A51A000000110000FC
S113531000000000000000327F3E00003F1F00003C
S1135320AD1B00007D1D0000291B00003D1B00007B
S1135330C91C0000511B0000091D0000391D00009C
S1135340F11D0000A8000020000000000C52000025
S11353502C520000EC51000000000000000000008E
S11353600000000000000000000000000000000039
S11353700000000000000000000000000000000029
S11353800000000000000000000000000000000019
S11353900000000000000000000000000000000009
S10B53A0000000000000000001
S9030000FC
